{
  "_format": "hh-sol-artifact-1",
  "contractName": "ALcoin",
  "sourceName": "contracts/ALcoin.sol",
  "abi": [
    {
      "anonymous": false,
      "inputs": [
        {
          "indexed": false,
          "internalType": "address",
          "name": "previousAdmin",
          "type": "address"
        },
        {
          "indexed": false,
          "internalType": "address",
          "name": "newAdmin",
          "type": "address"
        }
      ],
      "name": "AdminChanged",
      "type": "event"
    },
    {
      "anonymous": false,
      "inputs": [
        {
          "indexed": true,
          "internalType": "address",
          "name": "owner",
          "type": "address"
        },
        {
          "indexed": true,
          "internalType": "address",
          "name": "spender",
          "type": "address"
        },
        {
          "indexed": false,
          "internalType": "uint256",
          "name": "value",
          "type": "uint256"
        }
      ],
      "name": "Approval",
      "type": "event"
    },
    {
      "anonymous": false,
      "inputs": [
        {
          "indexed": true,
          "internalType": "address",
          "name": "beacon",
          "type": "address"
        }
      ],
      "name": "BeaconUpgraded",
      "type": "event"
    },
    {
      "anonymous": false,
      "inputs": [
        {
          "indexed": true,
          "internalType": "address",
          "name": "investor",
          "type": "address"
        },
        {
          "indexed": false,
          "internalType": "uint256",
          "name": "dividend",
          "type": "uint256"
        }
      ],
      "name": "DividendDistributed",
      "type": "event"
    },
    {
      "anonymous": false,
      "inputs": [
        {
          "indexed": false,
          "internalType": "uint8",
          "name": "version",
          "type": "uint8"
        }
      ],
      "name": "Initialized",
      "type": "event"
    },
    {
      "anonymous": false,
      "inputs": [
        {
          "indexed": true,
          "internalType": "address",
          "name": "user",
          "type": "address"
        },
        {
          "indexed": false,
          "internalType": "string",
          "name": "source",
          "type": "string"
        }
      ],
      "name": "OriginSet",
      "type": "event"
    },
    {
      "anonymous": false,
      "inputs": [
        {
          "indexed": true,
          "internalType": "address",
          "name": "previousOwner",
          "type": "address"
        },
        {
          "indexed": true,
          "internalType": "address",
          "name": "newOwner",
          "type": "address"
        }
      ],
      "name": "OwnershipTransferred",
      "type": "event"
    },
    {
      "anonymous": false,
      "inputs": [
        {
          "indexed": true,
          "internalType": "address",
          "name": "payer",
          "type": "address"
        },
        {
          "indexed": false,
          "internalType": "uint256",
          "name": "amount",
          "type": "uint256"
        },
        {
          "indexed": false,
          "internalType": "uint256",
          "name": "discountedAmount",
          "type": "uint256"
        }
      ],
      "name": "PaymentMade",
      "type": "event"
    },
    {
      "anonymous": false,
      "inputs": [
        {
          "indexed": false,
          "internalType": "uint256",
          "name": "amount",
          "type": "uint256"
        }
      ],
      "name": "TokensBurned",
      "type": "event"
    },
    {
      "anonymous": false,
      "inputs": [
        {
          "indexed": true,
          "internalType": "address",
          "name": "account",
          "type": "address"
        },
        {
          "indexed": false,
          "internalType": "uint256",
          "name": "amount",
          "type": "uint256"
        },
        {
          "indexed": false,
          "internalType": "uint256",
          "name": "unlockTime",
          "type": "uint256"
        }
      ],
      "name": "TokensLocked",
      "type": "event"
    },
    {
      "anonymous": false,
      "inputs": [
        {
          "indexed": true,
          "internalType": "address",
          "name": "buyer",
          "type": "address"
        },
        {
          "indexed": false,
          "internalType": "uint256",
          "name": "amount",
          "type": "uint256"
        },
        {
          "indexed": false,
          "internalType": "uint256",
          "name": "totalCost",
          "type": "uint256"
        }
      ],
      "name": "TokensPurchased",
      "type": "event"
    },
    {
      "anonymous": false,
      "inputs": [
        {
          "indexed": true,
          "internalType": "address",
          "name": "staker",
          "type": "address"
        },
        {
          "indexed": false,
          "internalType": "uint256",
          "name": "amount",
          "type": "uint256"
        }
      ],
      "name": "TokensStaked",
      "type": "event"
    },
    {
      "anonymous": false,
      "inputs": [
        {
          "indexed": true,
          "internalType": "address",
          "name": "staker",
          "type": "address"
        },
        {
          "indexed": false,
          "internalType": "uint256",
          "name": "amount",
          "type": "uint256"
        },
        {
          "indexed": false,
          "internalType": "uint256",
          "name": "reward",
          "type": "uint256"
        }
      ],
      "name": "TokensUnstaked",
      "type": "event"
    },
    {
      "anonymous": false,
      "inputs": [
        {
          "indexed": true,
          "internalType": "address",
          "name": "from",
          "type": "address"
        },
        {
          "indexed": true,
          "internalType": "address",
          "name": "to",
          "type": "address"
        },
        {
          "indexed": false,
          "internalType": "uint256",
          "name": "value",
          "type": "uint256"
        }
      ],
      "name": "Transfer",
      "type": "event"
    },
    {
      "anonymous": false,
      "inputs": [
        {
          "indexed": true,
          "internalType": "address",
          "name": "implementation",
          "type": "address"
        }
      ],
      "name": "Upgraded",
      "type": "event"
    },
    {
      "inputs": [],
      "name": "DISCOUNT_PERCENTAGE",
      "outputs": [
        {
          "internalType": "uint256",
          "name": "",
          "type": "uint256"
        }
      ],
      "stateMutability": "view",
      "type": "function"
    },
    {
      "inputs": [],
      "name": "DIVIDEND_BLOCK_INTERVAL",
      "outputs": [
        {
          "internalType": "uint256",
          "name": "",
          "type": "uint256"
        }
      ],
      "stateMutability": "view",
      "type": "function"
    },
    {
      "inputs": [],
      "name": "MAX_SUPPLY",
      "outputs": [
        {
          "internalType": "uint256",
          "name": "",
          "type": "uint256"
        }
      ],
      "stateMutability": "view",
      "type": "function"
    },
    {
      "inputs": [],
      "name": "PRESALE_CAP",
      "outputs": [
        {
          "internalType": "uint256",
          "name": "",
          "type": "uint256"
        }
      ],
      "stateMutability": "view",
      "type": "function"
    },
    {
      "inputs": [],
      "name": "PRESALE_LOCK_PERIOD",
      "outputs": [
        {
          "internalType": "uint256",
          "name": "",
          "type": "uint256"
        }
      ],
      "stateMutability": "view",
      "type": "function"
    },
    {
      "inputs": [],
      "name": "REWARD_RATE",
      "outputs": [
        {
          "internalType": "uint256",
          "name": "",
          "type": "uint256"
        }
      ],
      "stateMutability": "view",
      "type": "function"
    },
    {
      "inputs": [],
      "name": "TOKEN_PRICE",
      "outputs": [
        {
          "internalType": "uint256",
          "name": "",
          "type": "uint256"
        }
      ],
      "stateMutability": "view",
      "type": "function"
    },
    {
      "inputs": [
        {
          "internalType": "address",
          "name": "_account",
          "type": "address"
        }
      ],
      "name": "addToWhitelist",
      "outputs": [],
      "stateMutability": "nonpayable",
      "type": "function"
    },
    {
      "inputs": [
        {
          "internalType": "address",
          "name": "owner",
          "type": "address"
        },
        {
          "internalType": "address",
          "name": "spender",
          "type": "address"
        }
      ],
      "name": "allowance",
      "outputs": [
        {
          "internalType": "uint256",
          "name": "",
          "type": "uint256"
        }
      ],
      "stateMutability": "view",
      "type": "function"
    },
    {
      "inputs": [
        {
          "internalType": "address",
          "name": "spender",
          "type": "address"
        },
        {
          "internalType": "uint256",
          "name": "amount",
          "type": "uint256"
        }
      ],
      "name": "approve",
      "outputs": [
        {
          "internalType": "bool",
          "name": "",
          "type": "bool"
        }
      ],
      "stateMutability": "nonpayable",
      "type": "function"
    },
    {
      "inputs": [
        {
          "internalType": "address",
          "name": "account",
          "type": "address"
        }
      ],
      "name": "balanceOf",
      "outputs": [
        {
          "internalType": "uint256",
          "name": "",
          "type": "uint256"
        }
      ],
      "stateMutability": "view",
      "type": "function"
    },
    {
      "inputs": [
        {
          "internalType": "uint256",
          "name": "_amount",
          "type": "uint256"
        }
      ],
      "name": "burnTokens",
      "outputs": [],
      "stateMutability": "nonpayable",
      "type": "function"
    },
    {
      "inputs": [
        {
          "internalType": "uint256",
          "name": "amount",
          "type": "uint256"
        }
      ],
      "name": "buyBackTokens",
      "outputs": [],
      "stateMutability": "nonpayable",
      "type": "function"
    },
    {
      "inputs": [
        {
          "internalType": "uint256",
          "name": "_amount",
          "type": "uint256"
        }
      ],
      "name": "buyTokens",
      "outputs": [],
      "stateMutability": "payable",
      "type": "function"
    },
    {
      "inputs": [],
      "name": "decimals",
      "outputs": [
        {
          "internalType": "uint8",
          "name": "",
          "type": "uint8"
        }
      ],
      "stateMutability": "view",
      "type": "function"
    },
    {
      "inputs": [
        {
          "internalType": "address",
          "name": "spender",
          "type": "address"
        },
        {
          "internalType": "uint256",
          "name": "subtractedValue",
          "type": "uint256"
        }
      ],
      "name": "decreaseAllowance",
      "outputs": [
        {
          "internalType": "bool",
          "name": "",
          "type": "bool"
        }
      ],
      "stateMutability": "nonpayable",
      "type": "function"
    },
    {
      "inputs": [
        {
          "internalType": "uint256",
          "name": "",
          "type": "uint256"
        }
      ],
      "name": "distributeDividends",
      "outputs": [],
      "stateMutability": "nonpayable",
      "type": "function"
    },
    {
      "inputs": [
        {
          "internalType": "address",
          "name": "account",
          "type": "address"
        }
      ],
      "name": "getLockedPresaleTokens",
      "outputs": [
        {
          "internalType": "uint256",
          "name": "",
          "type": "uint256"
        }
      ],
      "stateMutability": "view",
      "type": "function"
    },
    {
      "inputs": [],
      "name": "getTokenPriceInETH",
      "outputs": [
        {
          "internalType": "uint256",
          "name": "",
          "type": "uint256"
        }
      ],
      "stateMutability": "view",
      "type": "function"
    },
    {
      "inputs": [],
      "name": "hotelStaffAddress",
      "outputs": [
        {
          "internalType": "address",
          "name": "",
          "type": "address"
        }
      ],
      "stateMutability": "view",
      "type": "function"
    },
    {
      "inputs": [
        {
          "internalType": "address",
          "name": "spender",
          "type": "address"
        },
        {
          "internalType": "uint256",
          "name": "addedValue",
          "type": "uint256"
        }
      ],
      "name": "increaseAllowance",
      "outputs": [
        {
          "internalType": "bool",
          "name": "",
          "type": "bool"
        }
      ],
      "stateMutability": "nonpayable",
      "type": "function"
    },
    {
      "inputs": [
        {
          "internalType": "address",
          "name": "_priceFeedAddress",
          "type": "address"
        },
        {
          "internalType": "uint256",
          "name": "_presaleStart",
          "type": "uint256"
        },
        {
          "internalType": "uint256",
          "name": "_presaleEnd",
          "type": "uint256"
        }
      ],
      "name": "initialize",
      "outputs": [],
      "stateMutability": "nonpayable",
      "type": "function"
    },
    {
      "inputs": [
        {
          "internalType": "address",
          "name": "",
          "type": "address"
        }
      ],
      "name": "investorBalance",
      "outputs": [
        {
          "internalType": "uint256",
          "name": "",
          "type": "uint256"
        }
      ],
      "stateMutability": "view",
      "type": "function"
    },
    {
      "inputs": [
        {
          "internalType": "uint256",
          "name": "",
          "type": "uint256"
        }
      ],
      "name": "investors",
      "outputs": [
        {
          "internalType": "address",
          "name": "",
          "type": "address"
        }
      ],
      "stateMutability": "view",
      "type": "function"
    },
    {
      "inputs": [
        {
          "internalType": "address",
          "name": "",
          "type": "address"
        }
      ],
      "name": "isInvestor",
      "outputs": [
        {
          "internalType": "bool",
          "name": "",
          "type": "bool"
        }
      ],
      "stateMutability": "view",
      "type": "function"
    },
    {
      "inputs": [],
      "name": "isPresaleActive",
      "outputs": [
        {
          "internalType": "bool",
          "name": "",
          "type": "bool"
        }
      ],
      "stateMutability": "view",
      "type": "function"
    },
    {
      "inputs": [
        {
          "internalType": "address",
          "name": "",
          "type": "address"
        }
      ],
      "name": "isStaking",
      "outputs": [
        {
          "internalType": "bool",
          "name": "",
          "type": "bool"
        }
      ],
      "stateMutability": "view",
      "type": "function"
    },
    {
      "inputs": [],
      "name": "lastDividendDistribution",
      "outputs": [
        {
          "internalType": "uint256",
          "name": "",
          "type": "uint256"
        }
      ],
      "stateMutability": "view",
      "type": "function"
    },
    {
      "inputs": [
        {
          "internalType": "address",
          "name": "",
          "type": "address"
        }
      ],
      "name": "lastStakeTime",
      "outputs": [
        {
          "internalType": "uint256",
          "name": "",
          "type": "uint256"
        }
      ],
      "stateMutability": "view",
      "type": "function"
    },
    {
      "inputs": [
        {
          "internalType": "address",
          "name": "",
          "type": "address"
        }
      ],
      "name": "lockedUntil",
      "outputs": [
        {
          "internalType": "uint256",
          "name": "",
          "type": "uint256"
        }
      ],
      "stateMutability": "view",
      "type": "function"
    },
    {
      "inputs": [],
      "name": "name",
      "outputs": [
        {
          "internalType": "string",
          "name": "",
          "type": "string"
        }
      ],
      "stateMutability": "view",
      "type": "function"
    },
    {
      "inputs": [
        {
          "internalType": "address",
          "name": "",
          "type": "address"
        }
      ],
      "name": "origin",
      "outputs": [
        {
          "internalType": "string",
          "name": "",
          "type": "string"
        }
      ],
      "stateMutability": "view",
      "type": "function"
    },
    {
      "inputs": [
        {
          "internalType": "string",
          "name": "",
          "type": "string"
        }
      ],
      "name": "originSales",
      "outputs": [
        {
          "internalType": "uint256",
          "name": "",
          "type": "uint256"
        }
      ],
      "stateMutability": "view",
      "type": "function"
    },
    {
      "inputs": [],
      "name": "owner",
      "outputs": [
        {
          "internalType": "address",
          "name": "",
          "type": "address"
        }
      ],
      "stateMutability": "view",
      "type": "function"
    },
    {
      "inputs": [
        {
          "internalType": "address",
          "name": "",
          "type": "address"
        }
      ],
      "name": "presaleBalance",
      "outputs": [
        {
          "internalType": "uint256",
          "name": "",
          "type": "uint256"
        }
      ],
      "stateMutability": "view",
      "type": "function"
    },
    {
      "inputs": [],
      "name": "presaleEnd",
      "outputs": [
        {
          "internalType": "uint256",
          "name": "",
          "type": "uint256"
        }
      ],
      "stateMutability": "view",
      "type": "function"
    },
    {
      "inputs": [],
      "name": "presaleSold",
      "outputs": [
        {
          "internalType": "uint256",
          "name": "",
          "type": "uint256"
        }
      ],
      "stateMutability": "view",
      "type": "function"
    },
    {
      "inputs": [],
      "name": "presaleStart",
      "outputs": [
        {
          "internalType": "uint256",
          "name": "",
          "type": "uint256"
        }
      ],
      "stateMutability": "view",
      "type": "function"
    },
    {
      "inputs": [
        {
          "internalType": "address",
          "name": "",
          "type": "address"
        }
      ],
      "name": "presaleUnlockTime",
      "outputs": [
        {
          "internalType": "uint256",
          "name": "",
          "type": "uint256"
        }
      ],
      "stateMutability": "view",
      "type": "function"
    },
    {
      "inputs": [],
      "name": "proxiableUUID",
      "outputs": [
        {
          "internalType": "bytes32",
          "name": "",
          "type": "bytes32"
        }
      ],
      "stateMutability": "view",
      "type": "function"
    },
    {
      "inputs": [
        {
          "internalType": "address",
          "name": "_account",
          "type": "address"
        }
      ],
      "name": "removeFromWhitelist",
      "outputs": [],
      "stateMutability": "nonpayable",
      "type": "function"
    },
    {
      "inputs": [],
      "name": "renounceOwnership",
      "outputs": [],
      "stateMutability": "nonpayable",
      "type": "function"
    },
    {
      "inputs": [
        {
          "internalType": "address",
          "name": "_staff",
          "type": "address"
        }
      ],
      "name": "setHotelStaffAddress",
      "outputs": [],
      "stateMutability": "nonpayable",
      "type": "function"
    },
    {
      "inputs": [
        {
          "internalType": "uint256",
          "name": "_newPresaleEnd",
          "type": "uint256"
        }
      ],
      "name": "setPresaleEnd",
      "outputs": [],
      "stateMutability": "nonpayable",
      "type": "function"
    },
    {
      "inputs": [
        {
          "internalType": "uint256",
          "name": "_amount",
          "type": "uint256"
        }
      ],
      "name": "stakeTokens",
      "outputs": [],
      "stateMutability": "nonpayable",
      "type": "function"
    },
    {
      "inputs": [
        {
          "internalType": "address",
          "name": "",
          "type": "address"
        }
      ],
      "name": "stakingBalance",
      "outputs": [
        {
          "internalType": "uint256",
          "name": "",
          "type": "uint256"
        }
      ],
      "stateMutability": "view",
      "type": "function"
    },
    {
      "inputs": [],
      "name": "symbol",
      "outputs": [
        {
          "internalType": "string",
          "name": "",
          "type": "string"
        }
      ],
      "stateMutability": "view",
      "type": "function"
    },
    {
      "inputs": [],
      "name": "totalSupply",
      "outputs": [
        {
          "internalType": "uint256",
          "name": "",
          "type": "uint256"
        }
      ],
      "stateMutability": "view",
      "type": "function"
    },
    {
      "inputs": [
        {
          "internalType": "address",
          "name": "to",
          "type": "address"
        },
        {
          "internalType": "uint256",
          "name": "amount",
          "type": "uint256"
        }
      ],
      "name": "transfer",
      "outputs": [
        {
          "internalType": "bool",
          "name": "",
          "type": "bool"
        }
      ],
      "stateMutability": "nonpayable",
      "type": "function"
    },
    {
      "inputs": [
        {
          "internalType": "address",
          "name": "from",
          "type": "address"
        },
        {
          "internalType": "address",
          "name": "to",
          "type": "address"
        },
        {
          "internalType": "uint256",
          "name": "amount",
          "type": "uint256"
        }
      ],
      "name": "transferFrom",
      "outputs": [
        {
          "internalType": "bool",
          "name": "",
          "type": "bool"
        }
      ],
      "stateMutability": "nonpayable",
      "type": "function"
    },
    {
      "inputs": [
        {
          "internalType": "address",
          "name": "newOwner",
          "type": "address"
        }
      ],
      "name": "transferOwnership",
      "outputs": [],
      "stateMutability": "nonpayable",
      "type": "function"
    },
    {
      "inputs": [],
      "name": "unstakeTokens",
      "outputs": [],
      "stateMutability": "nonpayable",
      "type": "function"
    },
    {
      "inputs": [
        {
          "internalType": "address",
          "name": "newImplementation",
          "type": "address"
        }
      ],
      "name": "upgradeTo",
      "outputs": [],
      "stateMutability": "nonpayable",
      "type": "function"
    },
    {
      "inputs": [
        {
          "internalType": "address",
          "name": "newImplementation",
          "type": "address"
        },
        {
          "internalType": "bytes",
          "name": "data",
          "type": "bytes"
        }
      ],
      "name": "upgradeToAndCall",
      "outputs": [],
      "stateMutability": "payable",
      "type": "function"
    },
    {
      "inputs": [
        {
          "internalType": "address",
          "name": "",
          "type": "address"
        }
      ],
      "name": "whitelist",
      "outputs": [
        {
          "internalType": "bool",
          "name": "",
          "type": "bool"
        }
      ],
      "stateMutability": "view",
      "type": "function"
    },
    {
      "stateMutability": "payable",
      "type": "receive"
    }
  ],
  "bytecode": "0x60a06040523060805234801561001457600080fd5b5060805161336161004c6000396000818161122d0152818161126d0152818161133f0152818161137f015261147401526133616000f3fe6080604052600436106102a45760003560e01c8063715018a611610166578063a9059cbb116100c7578063a9059cbb146107eb578063af760d6c1461080b578063ba98076314610820578063bd94fafc14610837578063be915d1514610855578063cee2a9cf14610883578063d2d8cb67146108b4578063dd62ed3e146108d0578063de8801e5146108f0578063e1113aee14610907578063e43252d714610928578063f082e0e114610948578063f2fde38b14610968578063fc155d1d1461098857600080fd5b8063715018a61461060b5780637547c7a3146106205780637a1ac61e146106405780637bb1ca19146106605780638ab1d6811461068e5780638d82bc7c146106ae5780638da5cb5b146106c6578063923c4e91146106db578063935955bc1461071457806395d89b41146107425780639b19251a146107575780639bc289f114610788578063a457c2d7146107b6578063a5ce413b146107d657600080fd5b80633659cfe6116102105780633659cfe61461044b578063395093511461046b5780633feb5f2b1461048b57806345bc78ab146104c357806348cebd67146104f15780634f1ef2861461050857806351d4ba071461051b57806352d1902d1461053b57806355596477146105505780635997bb371461057057806360d938dc146105855780636d1b229d1461059a5780636f49712b146105ba57806370a08231146105eb57600080fd5b806306fdde03146102b0578063095ea7b3146102db57806318160ddd1461030b578063229a0e5f1461032a578063229f3e291461034157806323b872dd1461035857806326e48891146103785780632931889714610398578063313ce567146103ad5780633243c791146103c957806332cb6b0c146103eb578063339416811461040a5780633610724e1461043857600080fd5b366102ab57005b600080fd5b3480156102bc57600080fd5b506102c56109a8565b6040516102d29190612c94565b60405180910390f35b3480156102e757600080fd5b506102fb6102f6366004612ce3565b610a3a565b60405190151581526020016102d2565b34801561031757600080fd5b506035545b6040519081526020016102d2565b34801561033657600080fd5b5061031c61012f5481565b34801561034d57600080fd5b5061031c61012e5481565b34801561036457600080fd5b506102fb610373366004612d0d565b610a54565b34801561038457600080fd5b5061031c610393366004612d49565b610a78565b3480156103a457600080fd5b5061031c610abe565b3480156103b957600080fd5b50604051601281526020016102d2565b3480156103d557600080fd5b506103e96103e4366004612d64565b610bcc565b005b3480156103f757600080fd5b5061031c6a14adf4b7320334b900000081565b34801561041657600080fd5b5061031c610425366004612d49565b6101356020526000908152604090205481565b6103e9610446366004612d64565b610dba565b34801561045757600080fd5b506103e9610466366004612d49565b611223565b34801561047757600080fd5b506102fb610486366004612ce3565b6112e8565b34801561049757600080fd5b506104ab6104a6366004612d64565b61130a565b6040516001600160a01b0390911681526020016102d2565b3480156104cf57600080fd5b5061031c6104de366004612d49565b6101326020526000908152604090205481565b3480156104fd57600080fd5b5061031c6101305481565b6103e9610516366004612e08565b611335565b34801561052757600080fd5b506103e9610536366004612d49565b6113ee565b34801561054757600080fd5b5061031c611467565b34801561055c57600080fd5b506102c561056b366004612d49565b611515565b34801561057c57600080fd5b5061031c600381565b34801561059157600080fd5b506102fb6115b0565b3480156105a657600080fd5b506103e96105b5366004612d64565b6115cd565b3480156105c657600080fd5b506102fb6105d5366004612d49565b6101346020526000908152604090205460ff1681565b3480156105f757600080fd5b5061031c610606366004612d49565b611646565b34801561061757600080fd5b506103e9611661565b34801561062c57600080fd5b506103e961063b366004612d64565b611675565b34801561064c57600080fd5b506103e961065b366004612e69565b6117d5565b34801561066c57600080fd5b5061031c61067b366004612d49565b6101336020526000908152604090205481565b34801561069a57600080fd5b506103e96106a9366004612d49565b611a1b565b3480156106ba57600080fd5b5061031c6301e1338081565b3480156106d257600080fd5b506104ab611a45565b3480156106e757600080fd5b5061031c6106f6366004612e9c565b805160208183018101805161013c8252928201919093012091525481565b34801561072057600080fd5b5061031c61072f366004612d49565b6101396020526000908152604090205481565b34801561074e57600080fd5b506102c5611a54565b34801561076357600080fd5b506102fb610772366004612d49565b6101376020526000908152604090205460ff1681565b34801561079457600080fd5b5061031c6107a3366004612d49565b6101386020526000908152604090205481565b3480156107c257600080fd5b506102fb6107d1366004612ce3565b611a63565b3480156107e257600080fd5b506103e9611ade565b3480156107f757600080fd5b506102fb610806366004612ce3565b611c49565b34801561081757600080fd5b5061031c600a81565b34801561082c57600080fd5b5061031c62ed4e0081565b34801561084357600080fd5b5061031c66d3c21bcecceda1601c1b81565b34801561086157600080fd5b5061031c610870366004612d49565b61013a6020526000908152604090205481565b34801561088f57600080fd5b506102fb61089e366004612d49565b6101366020526000908152604090205460ff1681565b3480156108c057600080fd5b5061031c670de0b6b3a764000081565b3480156108dc57600080fd5b5061031c6108eb366004612ee4565b611c57565b3480156108fc57600080fd5b5061031c61012d5481565b34801561091357600080fd5b5061013e546104ab906001600160a01b031681565b34801561093457600080fd5b506103e9610943366004612d49565b611c82565b34801561095457600080fd5b506103e9610963366004612d64565b611caf565b34801561097457600080fd5b506103e9610983366004612d49565b611d0f565b34801561099457600080fd5b506103e96109a3366004612d64565b611d85565b6060603680546109b790612f17565b80601f01602080910402602001604051908101604052809291908181526020018280546109e390612f17565b8015610a305780601f10610a0557610100808354040283529160200191610a30565b820191906000526020600020905b815481529060010190602001808311610a1357829003601f168201915b5050505050905090565b600033610a48818585612020565b60019150505b92915050565b600033610a62858285612144565b610a6d8585856121b8565b506001949350505050565b6001600160a01b038116600090815261013a6020526040812054421015610ab657506001600160a01b03166000908152610139602052604090205490565b506000919050565b60008061013160009054906101000a90046001600160a01b03166001600160a01b031663feaf968c6040518163ffffffff1660e01b815260040160a060405180830381865afa158015610b15573d6000803e3d6000fd5b505050506040513d601f19601f82011682018060405250810190610b399190612f6b565b50505091505060008113610b8b5760405162461bcd60e51b8152602060048201526014602482015273496e76616c6964204554482f555344207261746560601b60448201526064015b60405180910390fd5b6000610b9c826402540be400612fd1565b90506703e2c284391c000081610bba82670de0b6b3a7640000612fd1565b610bc49190612fe8565b935050505090565b610bd461235c565b610bdc6123bb565b6301e1338061012f54610bef919061300a565b421015610c2e5760405162461bcd60e51b815260206004820152600d60248201526c27b731b2903832b9103cb2b0b960991b6044820152606401610b82565b61013d54610c6d5760405162461bcd60e51b815260206004820152600c60248201526b4e6f20696e766573746f727360a01b6044820152606401610b82565b60005b61013d54811015610da757600061013d8281548110610c9157610c9161301d565b60009182526020808320909101546001600160a01b0316808352610135909152604082205490925090690a968163f0a57b4000008211610cd357506007610d09565b692a5a058fc295ed0000008211610cec57506008610d09565b6954b40b1f852bda0000008211610d0557506009610d09565b50600a5b60006064610d178385612fd1565b610d219190612fe8565b9050600081118015610d3d575080610d3a610606611a45565b10155b15610d9857610d54610d4d611a45565b85836121b8565b836001600160a01b03167f84fcdd4a7f507f2206dd50958e7473061bf941f91791c6ffaf74033a07c82f1282604051610d8f91815260200190565b60405180910390a25b50505050806001019050610c70565b504261012f55610db7600160fb55565b50565b610dc26123bb565b336000908152610137602052604090205460ff16610df25760405162461bcd60e51b8152600401610b8290613033565b69021e19e0c9bab2400000811015610e415760405162461bcd60e51b81526020600482015260126024820152714d696e696d756d2031302c30303020414c4360701b6044820152606401610b82565b69d3c21bcecceda1000000811115610e935760405162461bcd60e51b81526020600482015260156024820152744d6178696d756d20312c3030302c30303020414c4360581b6044820152606401610b82565b61013e546001600160a01b0316610eea5760405162461bcd60e51b815260206004820152601b60248201527a121bdd195b081cdd185999881859191c995cdcc81b9bdd081cd95d602a1b6044820152606401610b82565b66d3c21bcecceda1601c1b8161013054610f04919061300a565b1115610f485760405162461bcd60e51b8152602060048201526013602482015272141c995cd85b194818d85c081c995858da1959606a1b6044820152606401610b82565b6000610f52610abe565b90506000670de0b6b3a7640000610f698385612fd1565b610f739190612fe8565b905080341015610fb85760405162461bcd60e51b815260206004820152601060248201526f092dce6eaccccd2c6d2cadce8408aa8960831b6044820152606401610b82565b610fca610fc3611a45565b33856121b8565b826101306000828254610fdd919061300a565b909155505033600090815261013560205260408120805485929061100290849061300a565b9091555050336000908152610136602052604090205460ff1661107c5761013d805460018181019092557f311617e6f2abe00ca92b0da56c014828817049e78441cf034e4dd4feba5296250180546001600160a01b03191633908117909155600090815261013660205260409020805460ff191690911790555b33600090815261013960205260408120805485929061109c90849061300a565b909155506110af905062ed4e004261300a565b33600090815261013a60205260409020553481101561110057336108fc6110d6833461305c565b6040518115909202916000818181858888f193505050501580156110fe573d6000803e3d6000fd5b505b600032331461112f576040518060400160405280600881526020016718dbdb9d1c9858dd60c21b81525061114f565b604051806040016040528060068152602001651dd85b1b195d60d21b8152505b33600090815261013b6020526040902090915061116c82826130bf565b508361013c8260405161117f919061317e565b9081526020016040518091039020600082825461119c919061300a565b909155505060405133907f9b5b34654db5ce894066bc83213b643d23a50498da34bcba3bf2935a06a30bc3906111d3908490612c94565b60405180910390a2604080518581526020810184905233917f8fafebcaf9d154343dad25669bfa277f4fbacd7ac6b0c4fed522580e040a0f33910160405180910390a2505050610db7600160fb55565b6001600160a01b037f000000000000000000000000000000000000000000000000000000000000000016300361126b5760405162461bcd60e51b8152600401610b829061319a565b7f00000000000000000000000000000000000000000000000000000000000000006001600160a01b031661129d61241b565b6001600160a01b0316146112c35760405162461bcd60e51b8152600401610b82906131e6565b6112cc81612437565b60408051600080825260208201909252610db79183919061243f565b600033610a488185856112fb8383611c57565b611305919061300a565b612020565b61013d818154811061131b57600080fd5b6000918252602090912001546001600160a01b0316905081565b6001600160a01b037f000000000000000000000000000000000000000000000000000000000000000016300361137d5760405162461bcd60e51b8152600401610b829061319a565b7f00000000000000000000000000000000000000000000000000000000000000006001600160a01b03166113af61241b565b6001600160a01b0316146113d55760405162461bcd60e51b8152600401610b82906131e6565b6113de82612437565b6113ea8282600161243f565b5050565b6113f661235c565b6001600160a01b0381166114445760405162461bcd60e51b8152602060048201526015602482015274496e76616c6964207374616666206164647265737360581b6044820152606401610b82565b61013e80546001600160a01b0319166001600160a01b0392909216919091179055565b6000306001600160a01b037f000000000000000000000000000000000000000000000000000000000000000016146115025760405162461bcd60e51b815260206004820152603860248201527f555550535570677261646561626c653a206d757374206e6f742062652063616c6044820152771b1959081d1a1c9bdd59da0819195b1959d85d1958d85b1b60421b6064820152608401610b82565b506000805160206132c583398151915290565b61013b602052600090815260409020805461152f90612f17565b80601f016020809104026020016040519081016040528092919081815260200182805461155b90612f17565b80156115a85780601f1061157d576101008083540402835291602001916115a8565b820191906000526020600020905b81548152906001019060200180831161158b57829003601f168201915b505050505081565b600061012d5442101580156115c8575061012e544211155b905090565b6115d561235c565b806115e1610606611a45565b10156115ff5760405162461bcd60e51b8152600401610b8290613232565b61161061160a611a45565b826125af565b6040518181527f6ef4855b666dcc7884561072e4358b28dfe01feb1b7f4dcebc00e62d50394ac79060200160405180910390a150565b6001600160a01b031660009081526033602052604090205490565b61166961235c565b61167360006126dd565b565b61167d6123bb565b33600081815261013860205260409020544210156116d15760405162461bcd60e51b8152602060048201526011602482015270151bdad95b9cc8185c99481b1bd8dad959607a1b6044820152606401610b82565b600082116117185760405162461bcd60e51b81526020600482015260146024820152735374616b65206174206c65617374203120414c4360601b6044820152606401610b82565b8161172233611646565b10156117405760405162461bcd60e51b8152600401610b8290613232565b61174b3330846121b8565b33600090815261013260205260408120805484929061176b90849061300a565b909155505033600081815261013360209081526040808320429055610134825291829020805460ff1916600117905590518481527fb539ca1e5c8d398ddf1c41c30166f33404941683be4683319b57669a93dad4ef910160405180910390a250610db7600160fb55565b600054610100900460ff16158080156117f55750600054600160ff909116105b8061181657506118043061272f565b158015611816575060005460ff166001145b6118795760405162461bcd60e51b815260206004820152602e60248201527f496e697469616c697a61626c653a20636f6e747261637420697320616c72656160448201526d191e481a5b9a5d1a585b1a5e995960921b6064820152608401610b82565b6000805460ff19166001179055801561189c576000805461ff0019166101001790555b6118df6040518060400160405280600681526020016520a631b7b4b760d11b81525060405180604001604052806003815260200162414c4360e81b81525061273e565b6118e761276f565b6118ef61279e565b6118f76127c5565b81831061193f5760405162461bcd60e51b8152602060048201526016602482015275125b9d985b1a59081c1c995cd85b19481c195c9a5bd960521b6044820152606401610b82565b6001600160a01b0384166119925760405162461bcd60e51b815260206004820152601a602482015279496e76616c69642070726963652066656564206164647265737360301b6044820152606401610b82565b61013180546001600160a01b0319166001600160a01b0386161790556119c3336a14adf4b7320334b90000006127f4565b61012d83905561012e8290558015611a15576000805461ff0019169055604051600181527f7f26b83ff96e1f2b6a682f133852f6798a09c465da95921460cefb38474024989060200160405180910390a15b50505050565b611a2361235c565b6001600160a01b0316600090815261013760205260409020805460ff19169055565b6065546001600160a01b031690565b6060603780546109b790612f17565b60003381611a718286611c57565b905083811015611ad15760405162461bcd60e51b815260206004820152602560248201527f45524332303a2064656372656173656420616c6c6f77616e63652062656c6f77604482015264207a65726f60d81b6064820152608401610b82565b610a6d8286868403612020565b611ae66123bb565b336000908152610134602052604090205460ff16611b345760405162461bcd60e51b815260206004820152600b60248201526a4e6f74207374616b696e6760a81b6044820152606401610b82565b336000908152610132602052604090205480611b895760405162461bcd60e51b81526020600482015260146024820152734e6f20746f6b656e7320746f20756e7374616b6560601b6044820152606401610b82565b336000908152610133602052604081205463bbf81e0090611baa904261305c565b611bb5600385612fd1565b611bbf9190612fd1565b611bc99190612fe8565b9050611bd533826127f4565b611be03033846121b8565b33600081815261013260209081526040808320839055610134825291829020805460ff1916905581518581529081018490527f6f2d3e000c89d37446b7c0374c0125068ff316d1e3ee302336478a8cd03c2336910160405180910390a25050611673600160fb55565b600033610a488185856121b8565b6001600160a01b03918216600090815260346020908152604080832093909416825291909152205490565b611c8a61235c565b6001600160a01b0316600090815261013760205260409020805460ff19166001179055565b611cb761235c565b61012d548111611d095760405162461bcd60e51b815260206004820152601f60248201527f50726573616c6520656e64206d757374206265206166746572207374617274006044820152606401610b82565b61012e55565b611d1761235c565b6001600160a01b038116611d7c5760405162461bcd60e51b815260206004820152602660248201527f4f776e61626c653a206e6577206f776e657220697320746865207a65726f206160448201526564647265737360d01b6064820152608401610b82565b610db7816126dd565b611d8d6123bb565b336000908152610137602052604090205460ff16611dbd5760405162461bcd60e51b8152600401610b8290613033565b62ed4e0061012e54611dcf919061300a565b421015611e1a5760405162461bcd60e51b81526020600482015260196024820152784275796261636b206e6f742079657420617661696c61626c6560381b6044820152606401610b82565b80611e2433611646565b1015611e6f5760405162461bcd60e51b815260206004820152601a602482015279496e73756666696369656e7420746f6b656e2062616c616e636560301b6044820152606401610b82565b6101315460408051633fabe5a360e21b815290516000926001600160a01b03169163feaf968c9160048083019260a09291908290030181865afa158015611eba573d6000803e3d6000fd5b505050506040513d601f19601f82011682018060405250810190611ede9190612f6b565b50505091505060008113611f285760405162461bcd60e51b8152602060048201526011602482015270496e76616c69642045544820707269636560781b6044820152606401610b82565b6000670de0b6b3a7640000611f3d8185612fd1565b611f479190612fe8565b905060006064611f5883606e612fd1565b611f629190612fe8565b9050600083611f7983670de0b6b3a7640000612fd1565b611f839190612fe8565b905080471015611fd25760405162461bcd60e51b815260206004820152601a602482015279139bdd08195b9bdd59da08115512081a5b8818dbdb9d1c9858dd60321b6044820152606401610b82565b611fe433611fde611a45565b876121b8565b604051339082156108fc029083906000818181858888f19350505050158015612011573d6000803e3d6000fd5b5050505050610db7600160fb55565b6001600160a01b0383166120825760405162461bcd60e51b8152602060048201526024808201527f45524332303a20617070726f76652066726f6d20746865207a65726f206164646044820152637265737360e01b6064820152608401610b82565b6001600160a01b0382166120e35760405162461bcd60e51b815260206004820152602260248201527f45524332303a20617070726f766520746f20746865207a65726f206164647265604482015261737360f01b6064820152608401610b82565b6001600160a01b0383811660008181526034602090815260408083209487168084529482529182902085905590518481527f8c5be1e5ebec7d5bd14f71427d1e84f3dd0314c0f7b2291e5b200ac8c7c3b925910160405180910390a3505050565b60006121508484611c57565b90506000198114611a1557818110156121ab5760405162461bcd60e51b815260206004820152601d60248201527f45524332303a20696e73756666696369656e7420616c6c6f77616e63650000006044820152606401610b82565b611a158484848403612020565b6001600160a01b03831661221c5760405162461bcd60e51b815260206004820152602560248201527f45524332303a207472616e736665722066726f6d20746865207a65726f206164604482015264647265737360d81b6064820152608401610b82565b6001600160a01b03821661227e5760405162461bcd60e51b815260206004820152602360248201527f45524332303a207472616e7366657220746f20746865207a65726f206164647260448201526265737360e81b6064820152608401610b82565b6122898383836128af565b6001600160a01b038316600090815260336020526040902054818110156123015760405162461bcd60e51b815260206004820152602660248201527f45524332303a207472616e7366657220616d6f756e7420657863656564732062604482015265616c616e636560d01b6064820152608401610b82565b6001600160a01b03808516600081815260336020526040808220868603905592861680825290839020805486019055915160008051602061330c8339815191529061234f9086815260200190565b60405180910390a3611a15565b33612365611a45565b6001600160a01b0316146116735760405162461bcd60e51b815260206004820181905260248201527f4f776e61626c653a2063616c6c6572206973206e6f7420746865206f776e65726044820152606401610b82565b600260fb540361240d5760405162461bcd60e51b815260206004820152601f60248201527f5265656e7472616e637947756172643a207265656e7472616e742063616c6c006044820152606401610b82565b600260fb55565b600160fb55565b6000805160206132c5833981519152546001600160a01b031690565b610db761235c565b7f4910fdfa16fed3260ed0e7147f7cc6da11a60208b5b9406d12a635614ffd91435460ff1615612477576124728361298d565b505050565b826001600160a01b03166352d1902d6040518163ffffffff1660e01b8152600401602060405180830381865afa9250505080156124d1575060408051601f3d908101601f191682019092526124ce91810190613260565b60015b6125345760405162461bcd60e51b815260206004820152602e60248201527f45524331393637557067726164653a206e657720696d706c656d656e7461746960448201526d6f6e206973206e6f74205555505360901b6064820152608401610b82565b6000805160206132c583398151915281146125a35760405162461bcd60e51b815260206004820152602960248201527f45524331393637557067726164653a20756e737570706f727465642070726f786044820152681a58589b195555525160ba1b6064820152608401610b82565b50612472838383612a27565b6001600160a01b03821661260f5760405162461bcd60e51b815260206004820152602160248201527f45524332303a206275726e2066726f6d20746865207a65726f206164647265736044820152607360f81b6064820152608401610b82565b61261b826000836128af565b6001600160a01b0382166000908152603360205260409020548181101561268f5760405162461bcd60e51b815260206004820152602260248201527f45524332303a206275726e20616d6f756e7420657863656564732062616c616e604482015261636560f01b6064820152608401610b82565b6001600160a01b038316600081815260336020908152604080832086860390556035805487900390555185815291929160008051602061330c833981519152910160405180910390a3505050565b606580546001600160a01b038381166001600160a01b0319831681179093556040519116919082907f8be0079c531659141344cd1fd0a4f28419497f9722a3daafe3b4186f6b6457e090600090a35050565b6001600160a01b03163b151590565b600054610100900460ff166127655760405162461bcd60e51b8152600401610b8290613279565b6113ea8282612a4c565b600054610100900460ff166127965760405162461bcd60e51b8152600401610b8290613279565b611673612a8c565b600054610100900460ff166116735760405162461bcd60e51b8152600401610b8290613279565b600054610100900460ff166127ec5760405162461bcd60e51b8152600401610b8290613279565b611673612abc565b6001600160a01b03821661284a5760405162461bcd60e51b815260206004820152601f60248201527f45524332303a206d696e7420746f20746865207a65726f2061646472657373006044820152606401610b82565b612856600083836128af565b8060356000828254612868919061300a565b90915550506001600160a01b03821660008181526033602090815260408083208054860190555184815260008051602061330c833981519152910160405180910390a35050565b6001600160a01b038316158015906128df57506001600160a01b0383166000908152610139602052604090205415155b15612472576001600160a01b0383166000908152610139602090815260408083205461013a9092529091205442101561296f578061291c85611646565b101561296a5760405162461bcd60e51b815260206004820152601f60248201527f50726573616c6520746f6b656e7320617265207374696c6c206c6f636b6564006044820152606401610b82565b611a15565b5050506001600160a01b031660009081526101396020526040812055565b6129968161272f565b6129f85760405162461bcd60e51b815260206004820152602d60248201527f455243313936373a206e657720696d706c656d656e746174696f6e206973206e60448201526c1bdd08184818dbdb9d1c9858dd609a1b6064820152608401610b82565b6000805160206132c583398151915280546001600160a01b0319166001600160a01b0392909216919091179055565b612a3083612ae3565b600082511180612a3d5750805b1561247257611a158383612b23565b600054610100900460ff16612a735760405162461bcd60e51b8152600401610b8290613279565b6036612a7f83826130bf565b50603761247282826130bf565b600054610100900460ff16612ab35760405162461bcd60e51b8152600401610b8290613279565b611673336126dd565b600054610100900460ff166124145760405162461bcd60e51b8152600401610b8290613279565b612aec8161298d565b6040516001600160a01b038216907fbc7cd75a20ee27fd9adebab32041f755214dbc6bffa90cc0225b39da2e5c2d3b90600090a250565b6060612b4883836040518060600160405280602781526020016132e560279139612b4f565b9392505050565b6060600080856001600160a01b031685604051612b6c919061317e565b600060405180830381855af49150503d8060008114612ba7576040519150601f19603f3d011682016040523d82523d6000602084013e612bac565b606091505b5091509150612bbd86838387612bc7565b9695505050505050565b60608315612c34578251600003612c2d57612be18561272f565b612c2d5760405162461bcd60e51b815260206004820152601d60248201527f416464726573733a2063616c6c20746f206e6f6e2d636f6e74726163740000006044820152606401610b82565b5081612c3e565b612c3e8383612c46565b949350505050565b815115612c565781518083602001fd5b8060405162461bcd60e51b8152600401610b829190612c94565b60005b83811015612c8b578181015183820152602001612c73565b50506000910152565b6020815260008251806020840152612cb3816040850160208701612c70565b601f01601f19169190910160400192915050565b80356001600160a01b0381168114612cde57600080fd5b919050565b60008060408385031215612cf657600080fd5b612cff83612cc7565b946020939093013593505050565b600080600060608486031215612d2257600080fd5b612d2b84612cc7565b9250612d3960208501612cc7565b9150604084013590509250925092565b600060208284031215612d5b57600080fd5b612b4882612cc7565b600060208284031215612d7657600080fd5b5035919050565b634e487b7160e01b600052604160045260246000fd5b60006001600160401b0380841115612dad57612dad612d7d565b604051601f8501601f19908116603f01168101908282118183101715612dd557612dd5612d7d565b81604052809350858152868686011115612dee57600080fd5b858560208301376000602087830101525050509392505050565b60008060408385031215612e1b57600080fd5b612e2483612cc7565b915060208301356001600160401b03811115612e3f57600080fd5b8301601f81018513612e5057600080fd5b612e5f85823560208401612d93565b9150509250929050565b600080600060608486031215612e7e57600080fd5b612e8784612cc7565b95602085013595506040909401359392505050565b600060208284031215612eae57600080fd5b81356001600160401b03811115612ec457600080fd5b8201601f81018413612ed557600080fd5b612c3e84823560208401612d93565b60008060408385031215612ef757600080fd5b612f0083612cc7565b9150612f0e60208401612cc7565b90509250929050565b600181811c90821680612f2b57607f821691505b602082108103612f4b57634e487b7160e01b600052602260045260246000fd5b50919050565b805169ffffffffffffffffffff81168114612cde57600080fd5b600080600080600060a08688031215612f8357600080fd5b612f8c86612f51565b9450602086015193506040860151925060608601519150612faf60808701612f51565b90509295509295909350565b634e487b7160e01b600052601160045260246000fd5b8082028115828204841417610a4e57610a4e612fbb565b60008261300557634e487b7160e01b600052601260045260246000fd5b500490565b80820180821115610a4e57610a4e612fbb565b634e487b7160e01b600052603260045260246000fd5b6020808252600f908201526e139bdd081dda1a5d195b1a5cdd1959608a1b604082015260600190565b81810381811115610a4e57610a4e612fbb565b601f821115612472576000816000526020600020601f850160051c810160208610156130985750805b601f850160051c820191505b818110156130b7578281556001016130a4565b505050505050565b81516001600160401b038111156130d8576130d8612d7d565b6130ec816130e68454612f17565b8461306f565b602080601f83116001811461312157600084156131095750858301515b600019600386901b1c1916600185901b1785556130b7565b600085815260208120601f198616915b8281101561315057888601518255948401946001909101908401613131565b508582101561316e5787850151600019600388901b60f8161c191681555b5050505050600190811b01905550565b60008251613190818460208701612c70565b9190910192915050565b6020808252602c908201527f46756e6374696f6e206d7573742062652063616c6c6564207468726f7567682060408201526b19195b1959d85d1958d85b1b60a21b606082015260800190565b6020808252602c908201527f46756e6374696f6e206d7573742062652063616c6c6564207468726f7567682060408201526b6163746976652070726f787960a01b606082015260800190565b602080825260149082015273496e73756666696369656e742062616c616e636560601b604082015260600190565b60006020828403121561327257600080fd5b5051919050565b6020808252602b908201527f496e697469616c697a61626c653a20636f6e7472616374206973206e6f74206960408201526a6e697469616c697a696e6760a81b60608201526080019056fe360894a13ba1a3210667c828492db98dca3e2076cc3735a920a3ca505d382bbc416464726573733a206c6f772d6c6576656c2064656c65676174652063616c6c206661696c6564ddf252ad1be2c89b69c2b068fc378daa952ba7f163c4a11628f55a4df523b3efa2646970667358221220311a95e3b7f9496e6fbd1302d15c20ee2a70b3557251b5ff6033bfcf9063442764736f6c63430008160033",
  "linkReferences": {},
  "deployedLinkReferences": {}
}